{"contracts/SmartContract1.sol":{"SportsBetting":{"abi":[{"inputs":[],"stateMutability":"nonpayable","type":"constructor"},{"anonymous":false,"inputs":[{"indexed":true,"internalType":"address","name":"bettor","type":"address"},{"indexed":true,"internalType":"uint256","name":"gameId","type":"uint256"},{"indexed":false,"internalType":"enum SportsBetting.BetOption","name":"option","type":"uint8"},{"indexed":false,"internalType":"uint256","name":"amount","type":"uint256"}],"name":"BetPlaced","type":"event"},{"anonymous":false,"inputs":[{"indexed":false,"internalType":"uint256","name":"gameId","type":"uint256"},{"indexed":false,"internalType":"bytes32","name":"teamA","type":"bytes32"},{"indexed":false,"internalType":"bytes32","name":"teamB","type":"bytes32"}],"name":"GameCreated","type":"event"},{"anonymous":false,"inputs":[{"indexed":false,"internalType":"uint256","name":"gameId","type":"uint256"},{"indexed":false,"internalType":"enum SportsBetting.BetOption","name":"winningOption","type":"uint8"}],"name":"GameFinished","type":"event"},{"anonymous":false,"inputs":[{"indexed":true,"internalType":"address","name":"bettor","type":"address"},{"indexed":false,"internalType":"uint256","name":"amount","type":"uint256"}],"name":"WinningsWithdrawn","type":"event"},{"inputs":[{"internalType":"bytes32","name":"_teamA","type":"bytes32"},{"internalType":"bytes32","name":"_teamB","type":"bytes32"}],"name":"createGame","outputs":[],"stateMutability":"nonpayable","type":"function"},{"inputs":[{"internalType":"uint256","name":"_gameId","type":"uint256"},{"internalType":"enum SportsBetting.BetOption","name":"_winningOption","type":"uint8"}],"name":"finishGame","outputs":[],"stateMutability":"nonpayable","type":"function"},{"inputs":[],"name":"gameIdCounter","outputs":[{"internalType":"uint256","name":"","type":"uint256"}],"stateMutability":"view","type":"function"},{"inputs":[{"internalType":"uint256","name":"","type":"uint256"}],"name":"games","outputs":[{"internalType":"uint256","name":"id","type":"uint256"},{"internalType":"bytes32","name":"teamA","type":"bytes32"},{"internalType":"bytes32","name":"teamB","type":"bytes32"},{"internalType":"enum SportsBetting.GameStatus","name":"status","type":"uint8"},{"internalType":"enum SportsBetting.BetOption","name":"winningOption","type":"uint8"},{"internalType":"uint256","name":"totalBetTeamA","type":"uint256"},{"internalType":"uint256","name":"totalBetTeamB","type":"uint256"}],"stateMutability":"view","type":"function"},{"inputs":[{"internalType":"uint256","name":"_gameId","type":"uint256"}],"name":"getGameTotalBets","outputs":[{"internalType":"uint256","name":"totalBetTeamA","type":"uint256"},{"internalType":"uint256","name":"totalBetTeamB","type":"uint256"}],"stateMutability":"view","type":"function"},{"inputs":[{"internalType":"uint256","name":"_gameId","type":"uint256"},{"internalType":"address","name":"_user","type":"address"}],"name":"getUserBet","outputs":[{"internalType":"uint256","name":"teamABet","type":"uint256"},{"internalType":"uint256","name":"teamBBet","type":"uint256"}],"stateMutability":"view","type":"function"},{"inputs":[],"name":"owner","outputs":[{"internalType":"address","name":"","type":"address"}],"stateMutability":"view","type":"function"},{"inputs":[{"internalType":"uint256","name":"_gameId","type":"uint256"},{"internalType":"enum SportsBetting.BetOption","name":"_option","type":"uint8"}],"name":"placeBet","outputs":[],"stateMutability":"payable","type":"function"},{"inputs":[{"internalType":"uint256","name":"_gameId","type":"uint256"}],"name":"startGame","outputs":[],"stateMutability":"nonpayable","type":"function"},{"inputs":[{"internalType":"uint256","name":"_gameId","type":"uint256"}],"name":"withdrawWinnings","outputs":[],"stateMutability":"nonpayable","type":"function"}],"evm":{"bytecode":{"linkReferences":{},"object":"60806040526000600155348015601457600080fd5b50600080546001600160a01b03191633179055610e3f806100366000396000f3fe6080604052600436106100915760003560e01c80636946bb5d116100595780636946bb5d1461018957806376c32336146101a95780638da5cb5b146101de578063c03fb87c14610216578063e5ed1d591461023657600080fd5b806303edf91414610096578063117a5b90146100ab57806314794702146101255780631bb412d6146101455780632d4e8c4614610169575b600080fd5b6100a96100a4366004610bc6565b610256565b005b3480156100b757600080fd5b506101096100c6366004610bfa565b6002602081905260009182526040909120805460018201549282015460038301546004840154600590940154929493919260ff8083169361010090930416919087565b60405161011c9796959493929190610c3d565b60405180910390f35b34801561013157600080fd5b506100a9610140366004610bfa565b6104b7565b34801561015157600080fd5b5061015b60015481565b60405190815260200161011c565b34801561017557600080fd5b506100a9610184366004610bc6565b6107d7565b34801561019557600080fd5b506100a96101a4366004610c8a565b61092a565b3480156101b557600080fd5b506101c96101c4366004610bfa565b6109e0565b6040805192835260208301919091520161011c565b3480156101ea57600080fd5b506000546101fe906001600160a01b031681565b6040516001600160a01b03909116815260200161011c565b34801561022257600080fd5b506101c9610231366004610cac565b610a32565b34801561024257600080fd5b506100a9610251366004610bfa565b610a9f565b8160008111801561026957506001548111155b61028e5760405162461bcd60e51b815260040161028590610cdd565b60405180910390fd5b60008381526002602052604090206001600382015460ff1660028111156102b7576102b7610c13565b146103125760405162461bcd60e51b815260206004820152602560248201527f42657474696e67206973206e6f7420616c6c6f77656420666f7220746869732060448201526433b0b6b29760d91b6064820152608401610285565b600034116103705760405162461bcd60e51b815260206004820152602560248201527f42657420616d6f756e74206d7573742062652067726561746572207468616e206044820152643d32b9379760d91b6064820152608401610285565b600083600181111561038457610384610c13565b036103d057336000908152600682016020526040812080543492906103aa908490610d21565b92505081905550348160040160008282546103c59190610d21565b9091555061046d9050565b60018360018111156103e4576103e4610c13565b03610425573360009081526007820160205260408120805434929061040a908490610d21565b92505081905550348160050160008282546103c59190610d21565b60405162461bcd60e51b815260206004820152601760248201527f496e76616c69642062657474696e67206f7074696f6e2e0000000000000000006044820152606401610285565b83336001600160a01b03167f1efa8a4db358fbd4b3e1004cca7c5a1bdc9de3512d3392d48a51d1961316f98385346040516104a9929190610d3a565b60405180910390a350505050565b806000811180156104ca57506001548111155b6104e65760405162461bcd60e51b815260040161028590610cdd565b600082815260026020819052604090912090600382015460ff16600281111561051157610511610c13565b146105565760405162461bcd60e51b815260206004820152601560248201527423b0b6b29034b9903737ba103334b734b9b432b21760591b6044820152606401610285565b60008080806003850154610100900460ff16600181111561057957610579610c13565b036105f7573360009081526006850160205260409020549150816105da5760405162461bcd60e51b81526020600482015260186024820152772737903bb4b73734b733b9903a37903bb4ba34323930bb9760411b6044820152606401610285565b5060048301543360009081526006850160205260408120556106dd565b60016003850154610100900460ff16600181111561061757610617610c13565b03610695573360009081526007850160205260409020549150816106785760405162461bcd60e51b81526020600482015260186024820152772737903bb4b73734b733b9903a37903bb4ba34323930bb9760411b6044820152606401610285565b5060058301543360009081526007850160205260408120556106dd565b60405162461bcd60e51b815260206004820152601760248201527f496e76616c69642077696e6e696e67206f7074696f6e2e0000000000000000006044820152606401610285565b6000846005015485600401546106f39190610d21565b9050816107008285610d55565b61070a9190610d6c565b604051909450600090339086908381818185875af1925050503d806000811461074f576040519150601f19603f3d011682016040523d82523d6000602084013e610754565b606091505b50509050806107985760405162461bcd60e51b815260206004820152601060248201526f2a3930b739b332b9103330b4b632b21760811b6044820152606401610285565b60405185815233907f24215bbaf0832fa4d6ffef16dee3971d8b714921fef3ad63f793d578983c6dc29060200160405180910390a25050505050505050565b6000546001600160a01b031633146108015760405162461bcd60e51b815260040161028590610d8e565b8160008111801561081457506001548111155b6108305760405162461bcd60e51b815260040161028590610cdd565b60008381526002602052604090206001600382015460ff16600281111561085957610859610c13565b146108b75760405162461bcd60e51b815260206004820152602860248201527f47616d65206973206e6f74206f6e676f696e67206f7220616c7265616479206660448201526734b734b9b432b21760c11b6064820152608401610285565b600381018054600260ff1982168117835585929161ffff1916176101008360018111156108e6576108e6610c13565b02179055507f68385227a15d4c8b0102f32af285874cc22f99ac24ca21b5e45451166bac7af5848460405161091c929190610dd5565b60405180910390a150505050565b6000546001600160a01b031633146109545760405162461bcd60e51b815260040161028590610d8e565b6001805490600061096483610df0565b90915550506001805460008181526002602081815260409283902093845583850187905590830185905560038301805460ff19169055925481519081529283018590528201839052907f1b90c1887e69dfd6f866f8263219e4e0891111027f7de8862cefc957c29743df906060015b60405180910390a1505050565b600080826000811180156109f657506001548111155b610a125760405162461bcd60e51b815260040161028590610cdd565b505050600090815260026020526040902060048101546005909101549091565b60008083600081118015610a4857506001548111155b610a645760405162461bcd60e51b815260040161028590610cdd565b50505060009182526002602090815260408084206001600160a01b039093168452600683018252808420546007909301909152909120549091565b6000546001600160a01b03163314610ac95760405162461bcd60e51b815260040161028590610d8e565b80600081118015610adc57506001548111155b610af85760405162461bcd60e51b815260040161028590610cdd565b600082815260026020526040812090600382015460ff166002811115610b2057610b20610c13565b14610b7b5760405162461bcd60e51b815260206004820152602560248201527f47616d652068617320616c72656164792073746172746564206f722066696e6960448201526439b432b21760d91b6064820152608401610285565b60038101805460ff1916600117908190556040517f68385227a15d4c8b0102f32af285874cc22f99ac24ca21b5e45451166bac7af5916109d391869160ff6101009091041690610dd5565b60008060408385031215610bd957600080fd5b82359150602083013560028110610bef57600080fd5b809150509250929050565b600060208284031215610c0c57600080fd5b5035919050565b634e487b7160e01b600052602160045260246000fd5b60028110610c3957610c39610c13565b9052565b878152602081018790526040810186905260e0810160038610610c6257610c62610c13565b856060830152610c756080830186610c29565b60a082019390935260c0015295945050505050565b60008060408385031215610c9d57600080fd5b50508035926020909101359150565b60008060408385031215610cbf57600080fd5b8235915060208301356001600160a01b0381168114610bef57600080fd5b60208082526014908201527323b0b6b2903237b2b9903737ba1032bc34b9ba1760611b604082015260600190565b634e487b7160e01b600052601160045260246000fd5b80820180821115610d3457610d34610d0b565b92915050565b60408101610d488285610c29565b8260208301529392505050565b8082028115828204841417610d3457610d34610d0b565b600082610d8957634e487b7160e01b600052601260045260246000fd5b500490565b60208082526027908201527f4f6e6c7920746865206f776e65722063616e20706572666f726d20746869732060408201526630b1ba34b7b71760c91b606082015260800190565b82815260408101610de96020830184610c29565b9392505050565b600060018201610e0257610e02610d0b565b506001019056fea264697066735822122080f03b5919fca3403009a714ceee7693b6b8d1a724c26dbd26acf6802ea3203064736f6c634300081a0033","opcodes":"PUSH1 0x80 PUSH1 0x40 MSTORE PUSH1 0x0 PUSH1 0x1 SSTORE CALLVALUE DUP1 ISZERO PUSH1 0x14 JUMPI PUSH1 0x0 DUP1 REVERT JUMPDEST POP PUSH1 0x0 DUP1 SLOAD PUSH1 0x1 PUSH1 0x1 PUSH1 0xA0 SHL SUB NOT AND CALLER OR SWAP1 SSTORE PUSH2 0xE3F DUP1 PUSH2 0x36 PUSH1 0x0 CODECOPY PUSH1 0x0 RETURN INVALID PUSH1 0x80 PUSH1 0x40 MSTORE PUSH1 0x4 CALLDATASIZE LT PUSH2 0x91 JUMPI PUSH1 0x0 CALLDATALOAD PUSH1 0xE0 SHR DUP1 PUSH4 0x6946BB5D GT PUSH2 0x59 JUMPI DUP1 PUSH4 0x6946BB5D EQ PUSH2 0x189 JUMPI DUP1 PUSH4 0x76C32336 EQ PUSH2 0x1A9 JUMPI DUP1 PUSH4 0x8DA5CB5B EQ PUSH2 0x1DE JUMPI DUP1 PUSH4 0xC03FB87C EQ PUSH2 0x216 JUMPI DUP1 PUSH4 0xE5ED1D59 EQ PUSH2 0x236 JUMPI PUSH1 0x0 DUP1 REVERT JUMPDEST DUP1 PUSH4 0x3EDF914 EQ PUSH2 0x96 JUMPI DUP1 PUSH4 0x117A5B90 EQ PUSH2 0xAB JUMPI DUP1 PUSH4 0x14794702 EQ PUSH2 0x125 JUMPI DUP1 PUSH4 0x1BB412D6 EQ PUSH2 0x145 JUMPI DUP1 PUSH4 0x2D4E8C46 EQ PUSH2 0x169 JUMPI JUMPDEST PUSH1 0x0 DUP1 REVERT JUMPDEST PUSH2 0xA9 PUSH2 0xA4 CALLDATASIZE PUSH1 0x4 PUSH2 0xBC6 JUMP JUMPDEST PUSH2 0x256 JUMP JUMPDEST STOP JUMPDEST CALLVALUE DUP1 ISZERO PUSH2 0xB7 JUMPI PUSH1 0x0 DUP1 REVERT JUMPDEST POP PUSH2 0x109 PUSH2 0xC6 CALLDATASIZE PUSH1 0x4 PUSH2 0xBFA JUMP JUMPDEST PUSH1 0x2 PUSH1 0x20 DUP2 SWAP1 MSTORE PUSH1 0x0 SWAP2 DUP3 MSTORE PUSH1 0x40 SWAP1 SWAP2 KECCAK256 DUP1 SLOAD PUSH1 0x1 DUP3 ADD SLOAD SWAP3 DUP3 ADD SLOAD PUSH1 0x3 DUP4 ADD SLOAD PUSH1 0x4 DUP5 ADD SLOAD PUSH1 0x5 SWAP1 SWAP5 ADD SLOAD SWAP3 SWAP5 SWAP4 SWAP2 SWAP3 PUSH1 0xFF DUP1 DUP4 AND SWAP4 PUSH2 0x100 SWAP1 SWAP4 DIV AND SWAP2 SWAP1 DUP8 JUMP JUMPDEST PUSH1 0x40 MLOAD PUSH2 0x11C SWAP8 SWAP7 SWAP6 SWAP5 SWAP4 SWAP3 SWAP2 SWAP1 PUSH2 0xC3D JUMP JUMPDEST PUSH1 0x40 MLOAD DUP1 SWAP2 SUB SWAP1 RETURN JUMPDEST CALLVALUE DUP1 ISZERO PUSH2 0x131 JUMPI PUSH1 0x0 DUP1 REVERT JUMPDEST POP PUSH2 0xA9 PUSH2 0x140 CALLDATASIZE PUSH1 0x4 PUSH2 0xBFA JUMP JUMPDEST PUSH2 0x4B7 JUMP JUMPDEST CALLVALUE DUP1 ISZERO PUSH2 0x151 JUMPI PUSH1 0x0 DUP1 REVERT JUMPDEST POP PUSH2 0x15B PUSH1 0x1 SLOAD DUP2 JUMP JUMPDEST PUSH1 0x40 MLOAD SWAP1 DUP2 MSTORE PUSH1 0x20 ADD PUSH2 0x11C JUMP JUMPDEST CALLVALUE DUP1 ISZERO PUSH2 0x175 JUMPI PUSH1 0x0 DUP1 REVERT JUMPDEST POP PUSH2 0xA9 PUSH2 0x184 CALLDATASIZE PUSH1 0x4 PUSH2 0xBC6 JUMP JUMPDEST PUSH2 0x7D7 JUMP JUMPDEST CALLVALUE DUP1 ISZERO PUSH2 0x195 JUMPI PUSH1 0x0 DUP1 REVERT JUMPDEST POP PUSH2 0xA9 PUSH2 0x1A4 CALLDATASIZE PUSH1 0x4 PUSH2 0xC8A JUMP JUMPDEST PUSH2 0x92A JUMP JUMPDEST CALLVALUE DUP1 ISZERO PUSH2 0x1B5 JUMPI PUSH1 0x0 DUP1 REVERT JUMPDEST POP PUSH2 0x1C9 PUSH2 0x1C4 CALLDATASIZE PUSH1 0x4 PUSH2 0xBFA JUMP JUMPDEST PUSH2 0x9E0 JUMP JUMPDEST PUSH1 0x40 DUP1 MLOAD SWAP3 DUP4 MSTORE PUSH1 0x20 DUP4 ADD SWAP2 SWAP1 SWAP2 MSTORE ADD PUSH2 0x11C JUMP JUMPDEST CALLVALUE DUP1 ISZERO PUSH2 0x1EA JUMPI PUSH1 0x0 DUP1 REVERT JUMPDEST POP PUSH1 0x0 SLOAD PUSH2 0x1FE SWAP1 PUSH1 0x1 PUSH1 0x1 PUSH1 0xA0 SHL SUB AND DUP2 JUMP JUMPDEST PUSH1 0x40 MLOAD PUSH1 0x1 PUSH1 0x1 PUSH1 0xA0 SHL SUB SWAP1 SWAP2 AND DUP2 MSTORE PUSH1 0x20 ADD PUSH2 0x11C JUMP JUMPDEST CALLVALUE DUP1 ISZERO PUSH2 0x222 JUMPI PUSH1 0x0 DUP1 REVERT JUMPDEST POP PUSH2 0x1C9 PUSH2 0x231 CALLDATASIZE PUSH1 0x4 PUSH2 0xCAC JUMP JUMPDEST PUSH2 0xA32 JUMP JUMPDEST CALLVALUE DUP1 ISZERO PUSH2 0x242 JUMPI PUSH1 0x0 DUP1 REVERT JUMPDEST POP PUSH2 0xA9 PUSH2 0x251 CALLDATASIZE PUSH1 0x4 PUSH2 0xBFA JUMP JUMPDEST PUSH2 0xA9F JUMP JUMPDEST DUP2 PUSH1 0x0 DUP2 GT DUP1 ISZERO PUSH2 0x269 JUMPI POP PUSH1 0x1 SLOAD DUP2 GT ISZERO JUMPDEST PUSH2 0x28E JUMPI PUSH1 0x40 MLOAD PUSH3 0x461BCD PUSH1 0xE5 SHL DUP2 MSTORE PUSH1 0x4 ADD PUSH2 0x285 SWAP1 PUSH2 0xCDD JUMP JUMPDEST PUSH1 0x40 MLOAD DUP1 SWAP2 SUB SWAP1 REVERT JUMPDEST PUSH1 0x0 DUP4 DUP2 MSTORE PUSH1 0x2 PUSH1 0x20 MSTORE PUSH1 0x40 SWAP1 KECCAK256 PUSH1 0x1 PUSH1 0x3 DUP3 ADD SLOAD PUSH1 0xFF AND PUSH1 0x2 DUP2 GT ISZERO PUSH2 0x2B7 JUMPI PUSH2 0x2B7 PUSH2 0xC13 JUMP JUMPDEST EQ PUSH2 0x312 JUMPI PUSH1 0x40 MLOAD PUSH3 0x461BCD PUSH1 0xE5 SHL DUP2 MSTORE PUSH1 0x20 PUSH1 0x4 DUP3 ADD MSTORE PUSH1 0x25 PUSH1 0x24 DUP3 ADD MSTORE PUSH32 0x42657474696E67206973206E6F7420616C6C6F77656420666F72207468697320 PUSH1 0x44 DUP3 ADD MSTORE PUSH5 0x33B0B6B297 PUSH1 0xD9 SHL PUSH1 0x64 DUP3 ADD MSTORE PUSH1 0x84 ADD PUSH2 0x285 JUMP JUMPDEST PUSH1 0x0 CALLVALUE GT PUSH2 0x370 JUMPI PUSH1 0x40 MLOAD PUSH3 0x461BCD PUSH1 0xE5 SHL DUP2 MSTORE PUSH1 0x20 PUSH1 0x4 DUP3 ADD MSTORE PUSH1 0x25 PUSH1 0x24 DUP3 ADD MSTORE PUSH32 0x42657420616D6F756E74206D7573742062652067726561746572207468616E20 PUSH1 0x44 DUP3 ADD MSTORE PUSH5 0x3D32B93797 PUSH1 0xD9 SHL PUSH1 0x64 DUP3 ADD MSTORE PUSH1 0x84 ADD PUSH2 0x285 JUMP JUMPDEST PUSH1 0x0 DUP4 PUSH1 0x1 DUP2 GT ISZERO PUSH2 0x384 JUMPI PUSH2 0x384 PUSH2 0xC13 JUMP JUMPDEST SUB PUSH2 0x3D0 JUMPI CALLER PUSH1 0x0 SWAP1 DUP2 MSTORE PUSH1 0x6 DUP3 ADD PUSH1 0x20 MSTORE PUSH1 0x40 DUP2 KECCAK256 DUP1 SLOAD CALLVALUE SWAP3 SWAP1 PUSH2 0x3AA SWAP1 DUP5 SWAP1 PUSH2 0xD21 JUMP JUMPDEST SWAP3 POP POP DUP2 SWAP1 SSTORE POP CALLVALUE DUP2 PUSH1 0x4 ADD PUSH1 0x0 DUP3 DUP3 SLOAD PUSH2 0x3C5 SWAP2 SWAP1 PUSH2 0xD21 JUMP JUMPDEST SWAP1 SWAP2 SSTORE POP PUSH2 0x46D SWAP1 POP JUMP JUMPDEST PUSH1 0x1 DUP4 PUSH1 0x1 DUP2 GT ISZERO PUSH2 0x3E4 JUMPI PUSH2 0x3E4 PUSH2 0xC13 JUMP JUMPDEST SUB PUSH2 0x425 JUMPI CALLER PUSH1 0x0 SWAP1 DUP2 MSTORE PUSH1 0x7 DUP3 ADD PUSH1 0x20 MSTORE PUSH1 0x40 DUP2 KECCAK256 DUP1 SLOAD CALLVALUE SWAP3 SWAP1 PUSH2 0x40A SWAP1 DUP5 SWAP1 PUSH2 0xD21 JUMP JUMPDEST SWAP3 POP POP DUP2 SWAP1 SSTORE POP CALLVALUE DUP2 PUSH1 0x5 ADD PUSH1 0x0 DUP3 DUP3 SLOAD PUSH2 0x3C5 SWAP2 SWAP1 PUSH2 0xD21 JUMP JUMPDEST PUSH1 0x40 MLOAD PUSH3 0x461BCD PUSH1 0xE5 SHL DUP2 MSTORE PUSH1 0x20 PUSH1 0x4 DUP3 ADD MSTORE PUSH1 0x17 PUSH1 0x24 DUP3 ADD MSTORE PUSH32 0x496E76616C69642062657474696E67206F7074696F6E2E000000000000000000 PUSH1 0x44 DUP3 ADD MSTORE PUSH1 0x64 ADD PUSH2 0x285 JUMP JUMPDEST DUP4 CALLER PUSH1 0x1 PUSH1 0x1 PUSH1 0xA0 SHL SUB AND PUSH32 0x1EFA8A4DB358FBD4B3E1004CCA7C5A1BDC9DE3512D3392D48A51D1961316F983 DUP6 CALLVALUE PUSH1 0x40 MLOAD PUSH2 0x4A9 SWAP3 SWAP2 SWAP1 PUSH2 0xD3A JUMP JUMPDEST PUSH1 0x40 MLOAD DUP1 SWAP2 SUB SWAP1 LOG3 POP POP POP POP JUMP JUMPDEST DUP1 PUSH1 0x0 DUP2 GT DUP1 ISZERO PUSH2 0x4CA JUMPI POP PUSH1 0x1 SLOAD DUP2 GT ISZERO JUMPDEST PUSH2 0x4E6 JUMPI PUSH1 0x40 MLOAD PUSH3 0x461BCD PUSH1 0xE5 SHL DUP2 MSTORE PUSH1 0x4 ADD PUSH2 0x285 SWAP1 PUSH2 0xCDD JUMP JUMPDEST PUSH1 0x0 DUP3 DUP2 MSTORE PUSH1 0x2 PUSH1 0x20 DUP2 SWAP1 MSTORE PUSH1 0x40 SWAP1 SWAP2 KECCAK256 SWAP1 PUSH1 0x3 DUP3 ADD SLOAD PUSH1 0xFF AND PUSH1 0x2 DUP2 GT ISZERO PUSH2 0x511 JUMPI PUSH2 0x511 PUSH2 0xC13 JUMP JUMPDEST EQ PUSH2 0x556 JUMPI PUSH1 0x40 MLOAD PUSH3 0x461BCD PUSH1 0xE5 SHL DUP2 MSTORE PUSH1 0x20 PUSH1 0x4 DUP3 ADD MSTORE PUSH1 0x15 PUSH1 0x24 DUP3 ADD MSTORE PUSH21 0x23B0B6B29034B9903737BA103334B734B9B432B217 PUSH1 0x59 SHL PUSH1 0x44 DUP3 ADD MSTORE PUSH1 0x64 ADD PUSH2 0x285 JUMP JUMPDEST PUSH1 0x0 DUP1 DUP1 DUP1 PUSH1 0x3 DUP6 ADD SLOAD PUSH2 0x100 SWAP1 DIV PUSH1 0xFF AND PUSH1 0x1 DUP2 GT ISZERO PUSH2 0x579 JUMPI PUSH2 0x579 PUSH2 0xC13 JUMP JUMPDEST SUB PUSH2 0x5F7 JUMPI CALLER PUSH1 0x0 SWAP1 DUP2 MSTORE PUSH1 0x6 DUP6 ADD PUSH1 0x20 MSTORE PUSH1 0x40 SWAP1 KECCAK256 SLOAD SWAP2 POP DUP2 PUSH2 0x5DA JUMPI PUSH1 0x40 MLOAD PUSH3 0x461BCD PUSH1 0xE5 SHL DUP2 MSTORE PUSH1 0x20 PUSH1 0x4 DUP3 ADD MSTORE PUSH1 0x18 PUSH1 0x24 DUP3 ADD MSTORE PUSH24 0x2737903BB4B73734B733B9903A37903BB4BA34323930BB97 PUSH1 0x41 SHL PUSH1 0x44 DUP3 ADD MSTORE PUSH1 0x64 ADD PUSH2 0x285 JUMP JUMPDEST POP PUSH1 0x4 DUP4 ADD SLOAD CALLER PUSH1 0x0 SWAP1 DUP2 MSTORE PUSH1 0x6 DUP6 ADD PUSH1 0x20 MSTORE PUSH1 0x40 DUP2 KECCAK256 SSTORE PUSH2 0x6DD JUMP JUMPDEST PUSH1 0x1 PUSH1 0x3 DUP6 ADD SLOAD PUSH2 0x100 SWAP1 DIV PUSH1 0xFF AND PUSH1 0x1 DUP2 GT ISZERO PUSH2 0x617 JUMPI PUSH2 0x617 PUSH2 0xC13 JUMP JUMPDEST SUB PUSH2 0x695 JUMPI CALLER PUSH1 0x0 SWAP1 DUP2 MSTORE PUSH1 0x7 DUP6 ADD PUSH1 0x20 MSTORE PUSH1 0x40 SWAP1 KECCAK256 SLOAD SWAP2 POP DUP2 PUSH2 0x678 JUMPI PUSH1 0x40 MLOAD PUSH3 0x461BCD PUSH1 0xE5 SHL DUP2 MSTORE PUSH1 0x20 PUSH1 0x4 DUP3 ADD MSTORE PUSH1 0x18 PUSH1 0x24 DUP3 ADD MSTORE PUSH24 0x2737903BB4B73734B733B9903A37903BB4BA34323930BB97 PUSH1 0x41 SHL PUSH1 0x44 DUP3 ADD MSTORE PUSH1 0x64 ADD PUSH2 0x285 JUMP JUMPDEST POP PUSH1 0x5 DUP4 ADD SLOAD CALLER PUSH1 0x0 SWAP1 DUP2 MSTORE PUSH1 0x7 DUP6 ADD PUSH1 0x20 MSTORE PUSH1 0x40 DUP2 KECCAK256 SSTORE PUSH2 0x6DD JUMP JUMPDEST PUSH1 0x40 MLOAD PUSH3 0x461BCD PUSH1 0xE5 SHL DUP2 MSTORE PUSH1 0x20 PUSH1 0x4 DUP3 ADD MSTORE PUSH1 0x17 PUSH1 0x24 DUP3 ADD MSTORE PUSH32 0x496E76616C69642077696E6E696E67206F7074696F6E2E000000000000000000 PUSH1 0x44 DUP3 ADD MSTORE PUSH1 0x64 ADD PUSH2 0x285 JUMP JUMPDEST PUSH1 0x0 DUP5 PUSH1 0x5 ADD SLOAD DUP6 PUSH1 0x4 ADD SLOAD PUSH2 0x6F3 SWAP2 SWAP1 PUSH2 0xD21 JUMP JUMPDEST SWAP1 POP DUP2 PUSH2 0x700 DUP3 DUP6 PUSH2 0xD55 JUMP JUMPDEST PUSH2 0x70A SWAP2 SWAP1 PUSH2 0xD6C JUMP JUMPDEST PUSH1 0x40 MLOAD SWAP1 SWAP5 POP PUSH1 0x0 SWAP1 CALLER SWAP1 DUP7 SWAP1 DUP4 DUP2 DUP2 DUP2 DUP6 DUP8 GAS CALL SWAP3 POP POP POP RETURNDATASIZE DUP1 PUSH1 0x0 DUP2 EQ PUSH2 0x74F JUMPI PUSH1 0x40 MLOAD SWAP2 POP PUSH1 0x1F NOT PUSH1 0x3F RETURNDATASIZE ADD AND DUP3 ADD PUSH1 0x40 MSTORE RETURNDATASIZE DUP3 MSTORE RETURNDATASIZE PUSH1 0x0 PUSH1 0x20 DUP5 ADD RETURNDATACOPY PUSH2 0x754 JUMP JUMPDEST PUSH1 0x60 SWAP2 POP JUMPDEST POP POP SWAP1 POP DUP1 PUSH2 0x798 JUMPI PUSH1 0x40 MLOAD PUSH3 0x461BCD PUSH1 0xE5 SHL DUP2 MSTORE PUSH1 0x20 PUSH1 0x4 DUP3 ADD MSTORE PUSH1 0x10 PUSH1 0x24 DUP3 ADD MSTORE PUSH16 0x2A3930B739B332B9103330B4B632B217 PUSH1 0x81 SHL PUSH1 0x44 DUP3 ADD MSTORE PUSH1 0x64 ADD PUSH2 0x285 JUMP JUMPDEST PUSH1 0x40 MLOAD DUP6 DUP2 MSTORE CALLER SWAP1 PUSH32 0x24215BBAF0832FA4D6FFEF16DEE3971D8B714921FEF3AD63F793D578983C6DC2 SWAP1 PUSH1 0x20 ADD PUSH1 0x40 MLOAD DUP1 SWAP2 SUB SWAP1 LOG2 POP POP POP POP POP POP POP POP JUMP JUMPDEST PUSH1 0x0 SLOAD PUSH1 0x1 PUSH1 0x1 PUSH1 0xA0 SHL SUB AND CALLER EQ PUSH2 0x801 JUMPI PUSH1 0x40 MLOAD PUSH3 0x461BCD PUSH1 0xE5 SHL DUP2 MSTORE PUSH1 0x4 ADD PUSH2 0x285 SWAP1 PUSH2 0xD8E JUMP JUMPDEST DUP2 PUSH1 0x0 DUP2 GT DUP1 ISZERO PUSH2 0x814 JUMPI POP PUSH1 0x1 SLOAD DUP2 GT ISZERO JUMPDEST PUSH2 0x830 JUMPI PUSH1 0x40 MLOAD PUSH3 0x461BCD PUSH1 0xE5 SHL DUP2 MSTORE PUSH1 0x4 ADD PUSH2 0x285 SWAP1 PUSH2 0xCDD JUMP JUMPDEST PUSH1 0x0 DUP4 DUP2 MSTORE PUSH1 0x2 PUSH1 0x20 MSTORE PUSH1 0x40 SWAP1 KECCAK256 PUSH1 0x1 PUSH1 0x3 DUP3 ADD SLOAD PUSH1 0xFF AND PUSH1 0x2 DUP2 GT ISZERO PUSH2 0x859 JUMPI PUSH2 0x859 PUSH2 0xC13 JUMP JUMPDEST EQ PUSH2 0x8B7 JUMPI PUSH1 0x40 MLOAD PUSH3 0x461BCD PUSH1 0xE5 SHL DUP2 MSTORE PUSH1 0x20 PUSH1 0x4 DUP3 ADD MSTORE PUSH1 0x28 PUSH1 0x24 DUP3 ADD MSTORE PUSH32 0x47616D65206973206E6F74206F6E676F696E67206F7220616C72656164792066 PUSH1 0x44 DUP3 ADD MSTORE PUSH8 0x34B734B9B432B217 PUSH1 0xC1 SHL PUSH1 0x64 DUP3 ADD MSTORE PUSH1 0x84 ADD PUSH2 0x285 JUMP JUMPDEST PUSH1 0x3 DUP2 ADD DUP1 SLOAD PUSH1 0x2 PUSH1 0xFF NOT DUP3 AND DUP2 OR DUP4 SSTORE DUP6 SWAP3 SWAP2 PUSH2 0xFFFF NOT AND OR PUSH2 0x100 DUP4 PUSH1 0x1 DUP2 GT ISZERO PUSH2 0x8E6 JUMPI PUSH2 0x8E6 PUSH2 0xC13 JUMP JUMPDEST MUL OR SWAP1 SSTORE POP PUSH32 0x68385227A15D4C8B0102F32AF285874CC22F99AC24CA21B5E45451166BAC7AF5 DUP5 DUP5 PUSH1 0x40 MLOAD PUSH2 0x91C SWAP3 SWAP2 SWAP1 PUSH2 0xDD5 JUMP JUMPDEST PUSH1 0x40 MLOAD DUP1 SWAP2 SUB SWAP1 LOG1 POP POP POP POP JUMP JUMPDEST PUSH1 0x0 SLOAD PUSH1 0x1 PUSH1 0x1 PUSH1 0xA0 SHL SUB AND CALLER EQ PUSH2 0x954 JUMPI PUSH1 0x40 MLOAD PUSH3 0x461BCD PUSH1 0xE5 SHL DUP2 MSTORE PUSH1 0x4 ADD PUSH2 0x285 SWAP1 PUSH2 0xD8E JUMP JUMPDEST PUSH1 0x1 DUP1 SLOAD SWAP1 PUSH1 0x0 PUSH2 0x964 DUP4 PUSH2 0xDF0 JUMP JUMPDEST SWAP1 SWAP2 SSTORE POP POP PUSH1 0x1 DUP1 SLOAD PUSH1 0x0 DUP2 DUP2 MSTORE PUSH1 0x2 PUSH1 0x20 DUP2 DUP2 MSTORE PUSH1 0x40 SWAP3 DUP4 SWAP1 KECCAK256 SWAP4 DUP5 SSTORE DUP4 DUP6 ADD DUP8 SWAP1 SSTORE SWAP1 DUP4 ADD DUP6 SWAP1 SSTORE PUSH1 0x3 DUP4 ADD DUP1 SLOAD PUSH1 0xFF NOT AND SWAP1 SSTORE SWAP3 SLOAD DUP2 MLOAD SWAP1 DUP2 MSTORE SWAP3 DUP4 ADD DUP6 SWAP1 MSTORE DUP3 ADD DUP4 SWAP1 MSTORE SWAP1 PUSH32 0x1B90C1887E69DFD6F866F8263219E4E0891111027F7DE8862CEFC957C29743DF SWAP1 PUSH1 0x60 ADD JUMPDEST PUSH1 0x40 MLOAD DUP1 SWAP2 SUB SWAP1 LOG1 POP POP POP JUMP JUMPDEST PUSH1 0x0 DUP1 DUP3 PUSH1 0x0 DUP2 GT DUP1 ISZERO PUSH2 0x9F6 JUMPI POP PUSH1 0x1 SLOAD DUP2 GT ISZERO JUMPDEST PUSH2 0xA12 JUMPI PUSH1 0x40 MLOAD PUSH3 0x461BCD PUSH1 0xE5 SHL DUP2 MSTORE PUSH1 0x4 ADD PUSH2 0x285 SWAP1 PUSH2 0xCDD JUMP JUMPDEST POP POP POP PUSH1 0x0 SWAP1 DUP2 MSTORE PUSH1 0x2 PUSH1 0x20 MSTORE PUSH1 0x40 SWAP1 KECCAK256 PUSH1 0x4 DUP2 ADD SLOAD PUSH1 0x5 SWAP1 SWAP2 ADD SLOAD SWAP1 SWAP2 JUMP JUMPDEST PUSH1 0x0 DUP1 DUP4 PUSH1 0x0 DUP2 GT DUP1 ISZERO PUSH2 0xA48 JUMPI POP PUSH1 0x1 SLOAD DUP2 GT ISZERO JUMPDEST PUSH2 0xA64 JUMPI PUSH1 0x40 MLOAD PUSH3 0x461BCD PUSH1 0xE5 SHL DUP2 MSTORE PUSH1 0x4 ADD PUSH2 0x285 SWAP1 PUSH2 0xCDD JUMP JUMPDEST POP POP POP PUSH1 0x0 SWAP2 DUP3 MSTORE PUSH1 0x2 PUSH1 0x20 SWAP1 DUP2 MSTORE PUSH1 0x40 DUP1 DUP5 KECCAK256 PUSH1 0x1 PUSH1 0x1 PUSH1 0xA0 SHL SUB SWAP1 SWAP4 AND DUP5 MSTORE PUSH1 0x6 DUP4 ADD DUP3 MSTORE DUP1 DUP5 KECCAK256 SLOAD PUSH1 0x7 SWAP1 SWAP4 ADD SWAP1 SWAP2 MSTORE SWAP1 SWAP2 KECCAK256 SLOAD SWAP1 SWAP2 JUMP JUMPDEST PUSH1 0x0 SLOAD PUSH1 0x1 PUSH1 0x1 PUSH1 0xA0 SHL SUB AND CALLER EQ PUSH2 0xAC9 JUMPI PUSH1 0x40 MLOAD PUSH3 0x461BCD PUSH1 0xE5 SHL DUP2 MSTORE PUSH1 0x4 ADD PUSH2 0x285 SWAP1 PUSH2 0xD8E JUMP JUMPDEST DUP1 PUSH1 0x0 DUP2 GT DUP1 ISZERO PUSH2 0xADC JUMPI POP PUSH1 0x1 SLOAD DUP2 GT ISZERO JUMPDEST PUSH2 0xAF8 JUMPI PUSH1 0x40 MLOAD PUSH3 0x461BCD PUSH1 0xE5 SHL DUP2 MSTORE PUSH1 0x4 ADD PUSH2 0x285 SWAP1 PUSH2 0xCDD JUMP JUMPDEST PUSH1 0x0 DUP3 DUP2 MSTORE PUSH1 0x2 PUSH1 0x20 MSTORE PUSH1 0x40 DUP2 KECCAK256 SWAP1 PUSH1 0x3 DUP3 ADD SLOAD PUSH1 0xFF AND PUSH1 0x2 DUP2 GT ISZERO PUSH2 0xB20 JUMPI PUSH2 0xB20 PUSH2 0xC13 JUMP JUMPDEST EQ PUSH2 0xB7B JUMPI PUSH1 0x40 MLOAD PUSH3 0x461BCD PUSH1 0xE5 SHL DUP2 MSTORE PUSH1 0x20 PUSH1 0x4 DUP3 ADD MSTORE PUSH1 0x25 PUSH1 0x24 DUP3 ADD MSTORE PUSH32 0x47616D652068617320616C72656164792073746172746564206F722066696E69 PUSH1 0x44 DUP3 ADD MSTORE PUSH5 0x39B432B217 PUSH1 0xD9 SHL PUSH1 0x64 DUP3 ADD MSTORE PUSH1 0x84 ADD PUSH2 0x285 JUMP JUMPDEST PUSH1 0x3 DUP2 ADD DUP1 SLOAD PUSH1 0xFF NOT AND PUSH1 0x1 OR SWAP1 DUP2 SWAP1 SSTORE PUSH1 0x40 MLOAD PUSH32 0x68385227A15D4C8B0102F32AF285874CC22F99AC24CA21B5E45451166BAC7AF5 SWAP2 PUSH2 0x9D3 SWAP2 DUP7 SWAP2 PUSH1 0xFF PUSH2 0x100 SWAP1 SWAP2 DIV AND SWAP1 PUSH2 0xDD5 JUMP JUMPDEST PUSH1 0x0 DUP1 PUSH1 0x40 DUP4 DUP6 SUB SLT ISZERO PUSH2 0xBD9 JUMPI PUSH1 0x0 DUP1 REVERT JUMPDEST DUP3 CALLDATALOAD SWAP2 POP PUSH1 0x20 DUP4 ADD CALLDATALOAD PUSH1 0x2 DUP2 LT PUSH2 0xBEF JUMPI PUSH1 0x0 DUP1 REVERT JUMPDEST DUP1 SWAP2 POP POP SWAP3 POP SWAP3 SWAP1 POP JUMP JUMPDEST PUSH1 0x0 PUSH1 0x20 DUP3 DUP5 SUB SLT ISZERO PUSH2 0xC0C JUMPI PUSH1 0x0 DUP1 REVERT JUMPDEST POP CALLDATALOAD SWAP2 SWAP1 POP JUMP JUMPDEST PUSH4 0x4E487B71 PUSH1 0xE0 SHL PUSH1 0x0 MSTORE PUSH1 0x21 PUSH1 0x4 MSTORE PUSH1 0x24 PUSH1 0x0 REVERT JUMPDEST PUSH1 0x2 DUP2 LT PUSH2 0xC39 JUMPI PUSH2 0xC39 PUSH2 0xC13 JUMP JUMPDEST SWAP1 MSTORE JUMP JUMPDEST DUP8 DUP2 MSTORE PUSH1 0x20 DUP2 ADD DUP8 SWAP1 MSTORE PUSH1 0x40 DUP2 ADD DUP7 SWAP1 MSTORE PUSH1 0xE0 DUP2 ADD PUSH1 0x3 DUP7 LT PUSH2 0xC62 JUMPI PUSH2 0xC62 PUSH2 0xC13 JUMP JUMPDEST DUP6 PUSH1 0x60 DUP4 ADD MSTORE PUSH2 0xC75 PUSH1 0x80 DUP4 ADD DUP7 PUSH2 0xC29 JUMP JUMPDEST PUSH1 0xA0 DUP3 ADD SWAP4 SWAP1 SWAP4 MSTORE PUSH1 0xC0 ADD MSTORE SWAP6 SWAP5 POP POP POP POP POP JUMP JUMPDEST PUSH1 0x0 DUP1 PUSH1 0x40 DUP4 DUP6 SUB SLT ISZERO PUSH2 0xC9D JUMPI PUSH1 0x0 DUP1 REVERT JUMPDEST POP POP DUP1 CALLDATALOAD SWAP3 PUSH1 0x20 SWAP1 SWAP2 ADD CALLDATALOAD SWAP2 POP JUMP JUMPDEST PUSH1 0x0 DUP1 PUSH1 0x40 DUP4 DUP6 SUB SLT ISZERO PUSH2 0xCBF JUMPI PUSH1 0x0 DUP1 REVERT JUMPDEST DUP3 CALLDATALOAD SWAP2 POP PUSH1 0x20 DUP4 ADD CALLDATALOAD PUSH1 0x1 PUSH1 0x1 PUSH1 0xA0 SHL SUB DUP2 AND DUP2 EQ PUSH2 0xBEF JUMPI PUSH1 0x0 DUP1 REVERT JUMPDEST PUSH1 0x20 DUP1 DUP3 MSTORE PUSH1 0x14 SWAP1 DUP3 ADD MSTORE PUSH20 0x23B0B6B2903237B2B9903737BA1032BC34B9BA17 PUSH1 0x61 SHL PUSH1 0x40 DUP3 ADD MSTORE PUSH1 0x60 ADD SWAP1 JUMP JUMPDEST PUSH4 0x4E487B71 PUSH1 0xE0 SHL PUSH1 0x0 MSTORE PUSH1 0x11 PUSH1 0x4 MSTORE PUSH1 0x24 PUSH1 0x0 REVERT JUMPDEST DUP1 DUP3 ADD DUP1 DUP3 GT ISZERO PUSH2 0xD34 JUMPI PUSH2 0xD34 PUSH2 0xD0B JUMP JUMPDEST SWAP3 SWAP2 POP POP JUMP JUMPDEST PUSH1 0x40 DUP2 ADD PUSH2 0xD48 DUP3 DUP6 PUSH2 0xC29 JUMP JUMPDEST DUP3 PUSH1 0x20 DUP4 ADD MSTORE SWAP4 SWAP3 POP POP POP JUMP JUMPDEST DUP1 DUP3 MUL DUP2 ISZERO DUP3 DUP3 DIV DUP5 EQ OR PUSH2 0xD34 JUMPI PUSH2 0xD34 PUSH2 0xD0B JUMP JUMPDEST PUSH1 0x0 DUP3 PUSH2 0xD89 JUMPI PUSH4 0x4E487B71 PUSH1 0xE0 SHL PUSH1 0x0 MSTORE PUSH1 0x12 PUSH1 0x4 MSTORE PUSH1 0x24 PUSH1 0x0 REVERT JUMPDEST POP DIV SWAP1 JUMP JUMPDEST PUSH1 0x20 DUP1 DUP3 MSTORE PUSH1 0x27 SWAP1 DUP3 ADD MSTORE PUSH32 0x4F6E6C7920746865206F776E65722063616E20706572666F726D207468697320 PUSH1 0x40 DUP3 ADD MSTORE PUSH7 0x30B1BA34B7B717 PUSH1 0xC9 SHL PUSH1 0x60 DUP3 ADD MSTORE PUSH1 0x80 ADD SWAP1 JUMP JUMPDEST DUP3 DUP2 MSTORE PUSH1 0x40 DUP2 ADD PUSH2 0xDE9 PUSH1 0x20 DUP4 ADD DUP5 PUSH2 0xC29 JUMP JUMPDEST SWAP4 SWAP3 POP POP POP JUMP JUMPDEST PUSH1 0x0 PUSH1 0x1 DUP3 ADD PUSH2 0xE02 JUMPI PUSH2 0xE02 PUSH2 0xD0B JUMP JUMPDEST POP PUSH1 0x1 ADD SWAP1 JUMP INVALID LOG2 PUSH5 0x6970667358 0x22 SLT KECCAK256 DUP1 CREATE EXTCODESIZE MSIZE NOT 0xFC LOG3 BLOCKHASH ADDRESS MULMOD 0xA7 EQ 0xCE 0xEE PUSH23 0x93B6B8D1A724C26DBD26ACF6802EA3203064736F6C6343 STOP ADDMOD BYTE STOP CALLER "},"methodIdentifiers":{"createGame(bytes32,bytes32)":"6946bb5d","finishGame(uint256,uint8)":"2d4e8c46","gameIdCounter()":"1bb412d6","games(uint256)":"117a5b90","getGameTotalBets(uint256)":"76c32336","getUserBet(uint256,address)":"c03fb87c","owner()":"8da5cb5b","placeBet(uint256,uint8)":"03edf914","startGame(uint256)":"e5ed1d59","withdrawWinnings(uint256)":"14794702"}}}}}