{
  "_format": "hh-sol-artifact-1",
  "contractName": "PaymentContract",
  "sourceName": "contracts/SmartContract1.sol",
  "abi": [
    {
      "inputs": [],
      "stateMutability": "nonpayable",
      "type": "constructor"
    },
    {
      "anonymous": false,
      "inputs": [
        {
          "indexed": true,
          "internalType": "address",
          "name": "user",
          "type": "address"
        },
        {
          "indexed": false,
          "internalType": "uint256",
          "name": "amount",
          "type": "uint256"
        }
      ],
      "name": "Deposit",
      "type": "event"
    },
    {
      "anonymous": false,
      "inputs": [
        {
          "indexed": true,
          "internalType": "address",
          "name": "user",
          "type": "address"
        },
        {
          "indexed": false,
          "internalType": "uint256",
          "name": "amount",
          "type": "uint256"
        }
      ],
      "name": "Withdrawal",
      "type": "event"
    },
    {
      "inputs": [
        {
          "internalType": "address",
          "name": "",
          "type": "address"
        }
      ],
      "name": "balances",
      "outputs": [
        {
          "internalType": "uint256",
          "name": "",
          "type": "uint256"
        }
      ],
      "stateMutability": "view",
      "type": "function"
    },
    {
      "inputs": [],
      "name": "deposit",
      "outputs": [],
      "stateMutability": "payable",
      "type": "function"
    },
    {
      "inputs": [],
      "name": "getContractBalance",
      "outputs": [
        {
          "internalType": "uint256",
          "name": "",
          "type": "uint256"
        }
      ],
      "stateMutability": "view",
      "type": "function"
    },
    {
      "inputs": [],
      "name": "owner",
      "outputs": [
        {
          "internalType": "address",
          "name": "",
          "type": "address"
        }
      ],
      "stateMutability": "view",
      "type": "function"
    },
    {
      "inputs": [
        {
          "internalType": "uint256",
          "name": "_amount",
          "type": "uint256"
        }
      ],
      "name": "withdraw",
      "outputs": [],
      "stateMutability": "nonpayable",
      "type": "function"
    },
    {
      "inputs": [],
      "name": "withdrawAll",
      "outputs": [],
      "stateMutability": "nonpayable",
      "type": "function"
    }
  ],
  "bytecode": "0x6080604052348015600f57600080fd5b50600080546001600160a01b031916331790556104fa806100316000396000f3fe6080604052600436106100555760003560e01c806327e235e31461005a5780632e1a7d4d1461009a5780636f9fb98a146100bc578063853828b6146100cf5780638da5cb5b146100e4578063d0e30db01461011c575b600080fd5b34801561006657600080fd5b50610087610075366004610439565b60016020526000908152604090205481565b6040519081526020015b60405180910390f35b3480156100a657600080fd5b506100ba6100b5366004610469565b610124565b005b3480156100c857600080fd5b5047610087565b3480156100db57600080fd5b506100ba61026a565b3480156100f057600080fd5b50600054610104906001600160a01b031681565b6040516001600160a01b039091168152602001610091565b6100ba61037c565b336000908152600160205260409020548111156101805760405162461bcd60e51b815260206004820152601560248201527424b739bab33334b1b4b2b73a103130b630b731b29760591b60448201526064015b60405180910390fd5b336000908152600160205260408120805483929061019f908490610498565b9091555050604051600090339083908381818185875af1925050503d80600081146101e6576040519150601f19603f3d011682016040523d82523d6000602084013e6101eb565b606091505b50509050806102315760405162461bcd60e51b81526020600482015260126024820152712bb4ba34323930bbb0b6103330b4b632b21760711b6044820152606401610177565b60405182815233907f7fcf532c15f0a6db0bd6d0e038bea71d30d808c7d98cb3bf7268a95bf5081b659060200160405180910390a25050565b6000546001600160a01b031633146102d45760405162461bcd60e51b815260206004820152602760248201527f4f6e6c7920746865206f776e65722063616e20706572666f726d20746869732060448201526630b1ba34b7b71760c91b6064820152608401610177565b600080546040514792916001600160a01b03169083908381818185875af1925050503d8060008114610322576040519150601f19603f3d011682016040523d82523d6000602084013e610327565b606091505b50509050806103785760405162461bcd60e51b815260206004820152601860248201527f4f776e6572207769746864726177616c206661696c65642e00000000000000006044820152606401610177565b5050565b600034116103de5760405162461bcd60e51b815260206004820152602960248201527f4465706f73697420616d6f756e74206d757374206265206772656174657220746044820152683430b7103d32b9379760b91b6064820152608401610177565b33600090815260016020526040812080543492906103fd9084906104b1565b909155505060405134815233907fe1fffcc4923d04b559f4d29a8bfc6cda04eb5b0d3c460751c2402c5c5cc9109c9060200160405180910390a2565b60006020828403121561044b57600080fd5b81356001600160a01b038116811461046257600080fd5b9392505050565b60006020828403121561047b57600080fd5b5035919050565b634e487b7160e01b600052601160045260246000fd5b818103818111156104ab576104ab610482565b92915050565b808201808211156104ab576104ab61048256fea26469706673582212207c932aaafb14e17fcbf29bf3fb578dbf783c15807125e7f78b2bacca7607070864736f6c634300081a0033",
  "linkReferences": {},
  "deployedLinkReferences": {}
}