{
  "_format": "hh-sol-artifact-1",
  "contractName": "SportsBetting",
  "sourceName": "contracts/SmartContract1.sol",
  "abi": [
    {
      "inputs": [],
      "stateMutability": "nonpayable",
      "type": "constructor"
    },
    {
      "anonymous": false,
      "inputs": [
        {
          "indexed": true,
          "internalType": "address",
          "name": "bettor",
          "type": "address"
        },
        {
          "indexed": true,
          "internalType": "uint256",
          "name": "gameId",
          "type": "uint256"
        },
        {
          "indexed": false,
          "internalType": "enum SportsBetting.BetOption",
          "name": "option",
          "type": "uint8"
        },
        {
          "indexed": false,
          "internalType": "uint256",
          "name": "amount",
          "type": "uint256"
        }
      ],
      "name": "BetPlaced",
      "type": "event"
    },
    {
      "anonymous": false,
      "inputs": [
        {
          "indexed": false,
          "internalType": "uint256",
          "name": "gameId",
          "type": "uint256"
        },
        {
          "indexed": false,
          "internalType": "bytes32",
          "name": "teamA",
          "type": "bytes32"
        },
        {
          "indexed": false,
          "internalType": "bytes32",
          "name": "teamB",
          "type": "bytes32"
        }
      ],
      "name": "GameCreated",
      "type": "event"
    },
    {
      "anonymous": false,
      "inputs": [
        {
          "indexed": false,
          "internalType": "uint256",
          "name": "gameId",
          "type": "uint256"
        },
        {
          "indexed": false,
          "internalType": "enum SportsBetting.BetOption",
          "name": "winningOption",
          "type": "uint8"
        }
      ],
      "name": "GameFinished",
      "type": "event"
    },
    {
      "anonymous": false,
      "inputs": [
        {
          "indexed": true,
          "internalType": "address",
          "name": "bettor",
          "type": "address"
        },
        {
          "indexed": false,
          "internalType": "uint256",
          "name": "amount",
          "type": "uint256"
        }
      ],
      "name": "WinningsWithdrawn",
      "type": "event"
    },
    {
      "inputs": [
        {
          "internalType": "bytes32",
          "name": "_teamA",
          "type": "bytes32"
        },
        {
          "internalType": "bytes32",
          "name": "_teamB",
          "type": "bytes32"
        }
      ],
      "name": "createGame",
      "outputs": [],
      "stateMutability": "nonpayable",
      "type": "function"
    },
    {
      "inputs": [
        {
          "internalType": "uint256",
          "name": "_gameId",
          "type": "uint256"
        },
        {
          "internalType": "enum SportsBetting.BetOption",
          "name": "_winningOption",
          "type": "uint8"
        }
      ],
      "name": "finishGame",
      "outputs": [],
      "stateMutability": "nonpayable",
      "type": "function"
    },
    {
      "inputs": [],
      "name": "gameIdCounter",
      "outputs": [
        {
          "internalType": "uint256",
          "name": "",
          "type": "uint256"
        }
      ],
      "stateMutability": "view",
      "type": "function"
    },
    {
      "inputs": [
        {
          "internalType": "uint256",
          "name": "",
          "type": "uint256"
        }
      ],
      "name": "games",
      "outputs": [
        {
          "internalType": "uint256",
          "name": "id",
          "type": "uint256"
        },
        {
          "internalType": "bytes32",
          "name": "teamA",
          "type": "bytes32"
        },
        {
          "internalType": "bytes32",
          "name": "teamB",
          "type": "bytes32"
        },
        {
          "internalType": "enum SportsBetting.GameStatus",
          "name": "status",
          "type": "uint8"
        },
        {
          "internalType": "enum SportsBetting.BetOption",
          "name": "winningOption",
          "type": "uint8"
        },
        {
          "internalType": "uint256",
          "name": "totalBetTeamA",
          "type": "uint256"
        },
        {
          "internalType": "uint256",
          "name": "totalBetTeamB",
          "type": "uint256"
        }
      ],
      "stateMutability": "view",
      "type": "function"
    },
    {
      "inputs": [
        {
          "internalType": "uint256",
          "name": "_gameId",
          "type": "uint256"
        }
      ],
      "name": "getGameTotalBets",
      "outputs": [
        {
          "internalType": "uint256",
          "name": "totalBetTeamA",
          "type": "uint256"
        },
        {
          "internalType": "uint256",
          "name": "totalBetTeamB",
          "type": "uint256"
        }
      ],
      "stateMutability": "view",
      "type": "function"
    },
    {
      "inputs": [
        {
          "internalType": "uint256",
          "name": "_gameId",
          "type": "uint256"
        },
        {
          "internalType": "address",
          "name": "_user",
          "type": "address"
        }
      ],
      "name": "getUserBet",
      "outputs": [
        {
          "internalType": "uint256",
          "name": "teamABet",
          "type": "uint256"
        },
        {
          "internalType": "uint256",
          "name": "teamBBet",
          "type": "uint256"
        }
      ],
      "stateMutability": "view",
      "type": "function"
    },
    {
      "inputs": [],
      "name": "owner",
      "outputs": [
        {
          "internalType": "address",
          "name": "",
          "type": "address"
        }
      ],
      "stateMutability": "view",
      "type": "function"
    },
    {
      "inputs": [
        {
          "internalType": "uint256",
          "name": "_gameId",
          "type": "uint256"
        },
        {
          "internalType": "enum SportsBetting.BetOption",
          "name": "_option",
          "type": "uint8"
        }
      ],
      "name": "placeBet",
      "outputs": [],
      "stateMutability": "payable",
      "type": "function"
    },
    {
      "inputs": [
        {
          "internalType": "uint256",
          "name": "_gameId",
          "type": "uint256"
        }
      ],
      "name": "startGame",
      "outputs": [],
      "stateMutability": "nonpayable",
      "type": "function"
    },
    {
      "inputs": [
        {
          "internalType": "uint256",
          "name": "_gameId",
          "type": "uint256"
        }
      ],
      "name": "withdrawWinnings",
      "outputs": [],
      "stateMutability": "nonpayable",
      "type": "function"
    }
  ],
  "bytecode": "0x60806040526000600155348015601457600080fd5b50600080546001600160a01b03191633179055610e3f806100366000396000f3fe6080604052600436106100915760003560e01c80636946bb5d116100595780636946bb5d1461018957806376c32336146101a95780638da5cb5b146101de578063c03fb87c14610216578063e5ed1d591461023657600080fd5b806303edf91414610096578063117a5b90146100ab57806314794702146101255780631bb412d6146101455780632d4e8c4614610169575b600080fd5b6100a96100a4366004610bc6565b610256565b005b3480156100b757600080fd5b506101096100c6366004610bfa565b6002602081905260009182526040909120805460018201549282015460038301546004840154600590940154929493919260ff8083169361010090930416919087565b60405161011c9796959493929190610c3d565b60405180910390f35b34801561013157600080fd5b506100a9610140366004610bfa565b6104b7565b34801561015157600080fd5b5061015b60015481565b60405190815260200161011c565b34801561017557600080fd5b506100a9610184366004610bc6565b6107d7565b34801561019557600080fd5b506100a96101a4366004610c8a565b61092a565b3480156101b557600080fd5b506101c96101c4366004610bfa565b6109e0565b6040805192835260208301919091520161011c565b3480156101ea57600080fd5b506000546101fe906001600160a01b031681565b6040516001600160a01b03909116815260200161011c565b34801561022257600080fd5b506101c9610231366004610cac565b610a32565b34801561024257600080fd5b506100a9610251366004610bfa565b610a9f565b8160008111801561026957506001548111155b61028e5760405162461bcd60e51b815260040161028590610cdd565b60405180910390fd5b60008381526002602052604090206001600382015460ff1660028111156102b7576102b7610c13565b146103125760405162461bcd60e51b815260206004820152602560248201527f42657474696e67206973206e6f7420616c6c6f77656420666f7220746869732060448201526433b0b6b29760d91b6064820152608401610285565b600034116103705760405162461bcd60e51b815260206004820152602560248201527f42657420616d6f756e74206d7573742062652067726561746572207468616e206044820152643d32b9379760d91b6064820152608401610285565b600083600181111561038457610384610c13565b036103d057336000908152600682016020526040812080543492906103aa908490610d21565b92505081905550348160040160008282546103c59190610d21565b9091555061046d9050565b60018360018111156103e4576103e4610c13565b03610425573360009081526007820160205260408120805434929061040a908490610d21565b92505081905550348160050160008282546103c59190610d21565b60405162461bcd60e51b815260206004820152601760248201527f496e76616c69642062657474696e67206f7074696f6e2e0000000000000000006044820152606401610285565b83336001600160a01b03167f1efa8a4db358fbd4b3e1004cca7c5a1bdc9de3512d3392d48a51d1961316f98385346040516104a9929190610d3a565b60405180910390a350505050565b806000811180156104ca57506001548111155b6104e65760405162461bcd60e51b815260040161028590610cdd565b600082815260026020819052604090912090600382015460ff16600281111561051157610511610c13565b146105565760405162461bcd60e51b815260206004820152601560248201527423b0b6b29034b9903737ba103334b734b9b432b21760591b6044820152606401610285565b60008080806003850154610100900460ff16600181111561057957610579610c13565b036105f7573360009081526006850160205260409020549150816105da5760405162461bcd60e51b81526020600482015260186024820152772737903bb4b73734b733b9903a37903bb4ba34323930bb9760411b6044820152606401610285565b5060048301543360009081526006850160205260408120556106dd565b60016003850154610100900460ff16600181111561061757610617610c13565b03610695573360009081526007850160205260409020549150816106785760405162461bcd60e51b81526020600482015260186024820152772737903bb4b73734b733b9903a37903bb4ba34323930bb9760411b6044820152606401610285565b5060058301543360009081526007850160205260408120556106dd565b60405162461bcd60e51b815260206004820152601760248201527f496e76616c69642077696e6e696e67206f7074696f6e2e0000000000000000006044820152606401610285565b6000846005015485600401546106f39190610d21565b9050816107008285610d55565b61070a9190610d6c565b604051909450600090339086908381818185875af1925050503d806000811461074f576040519150601f19603f3d011682016040523d82523d6000602084013e610754565b606091505b50509050806107985760405162461bcd60e51b815260206004820152601060248201526f2a3930b739b332b9103330b4b632b21760811b6044820152606401610285565b60405185815233907f24215bbaf0832fa4d6ffef16dee3971d8b714921fef3ad63f793d578983c6dc29060200160405180910390a25050505050505050565b6000546001600160a01b031633146108015760405162461bcd60e51b815260040161028590610d8e565b8160008111801561081457506001548111155b6108305760405162461bcd60e51b815260040161028590610cdd565b60008381526002602052604090206001600382015460ff16600281111561085957610859610c13565b146108b75760405162461bcd60e51b815260206004820152602860248201527f47616d65206973206e6f74206f6e676f696e67206f7220616c7265616479206660448201526734b734b9b432b21760c11b6064820152608401610285565b600381018054600260ff1982168117835585929161ffff1916176101008360018111156108e6576108e6610c13565b02179055507f68385227a15d4c8b0102f32af285874cc22f99ac24ca21b5e45451166bac7af5848460405161091c929190610dd5565b60405180910390a150505050565b6000546001600160a01b031633146109545760405162461bcd60e51b815260040161028590610d8e565b6001805490600061096483610df0565b90915550506001805460008181526002602081815260409283902093845583850187905590830185905560038301805460ff19169055925481519081529283018590528201839052907f1b90c1887e69dfd6f866f8263219e4e0891111027f7de8862cefc957c29743df906060015b60405180910390a1505050565b600080826000811180156109f657506001548111155b610a125760405162461bcd60e51b815260040161028590610cdd565b505050600090815260026020526040902060048101546005909101549091565b60008083600081118015610a4857506001548111155b610a645760405162461bcd60e51b815260040161028590610cdd565b50505060009182526002602090815260408084206001600160a01b039093168452600683018252808420546007909301909152909120549091565b6000546001600160a01b03163314610ac95760405162461bcd60e51b815260040161028590610d8e565b80600081118015610adc57506001548111155b610af85760405162461bcd60e51b815260040161028590610cdd565b600082815260026020526040812090600382015460ff166002811115610b2057610b20610c13565b14610b7b5760405162461bcd60e51b815260206004820152602560248201527f47616d652068617320616c72656164792073746172746564206f722066696e6960448201526439b432b21760d91b6064820152608401610285565b60038101805460ff1916600117908190556040517f68385227a15d4c8b0102f32af285874cc22f99ac24ca21b5e45451166bac7af5916109d391869160ff6101009091041690610dd5565b60008060408385031215610bd957600080fd5b82359150602083013560028110610bef57600080fd5b809150509250929050565b600060208284031215610c0c57600080fd5b5035919050565b634e487b7160e01b600052602160045260246000fd5b60028110610c3957610c39610c13565b9052565b878152602081018790526040810186905260e0810160038610610c6257610c62610c13565b856060830152610c756080830186610c29565b60a082019390935260c0015295945050505050565b60008060408385031215610c9d57600080fd5b50508035926020909101359150565b60008060408385031215610cbf57600080fd5b8235915060208301356001600160a01b0381168114610bef57600080fd5b60208082526014908201527323b0b6b2903237b2b9903737ba1032bc34b9ba1760611b604082015260600190565b634e487b7160e01b600052601160045260246000fd5b80820180821115610d3457610d34610d0b565b92915050565b60408101610d488285610c29565b8260208301529392505050565b8082028115828204841417610d3457610d34610d0b565b600082610d8957634e487b7160e01b600052601260045260246000fd5b500490565b60208082526027908201527f4f6e6c7920746865206f776e65722063616e20706572666f726d20746869732060408201526630b1ba34b7b71760c91b606082015260800190565b82815260408101610de96020830184610c29565b9392505050565b600060018201610e0257610e02610d0b565b506001019056fea264697066735822122080f03b5919fca3403009a714ceee7693b6b8d1a724c26dbd26acf6802ea3203064736f6c634300081a0033",
  "linkReferences": {},
  "deployedLinkReferences": {}
}